{
  "abi": [
    {
      "type": "function",
      "name": "aggregate",
      "inputs": [
        {
          "name": "calls",
          "type": "tuple[]",
          "internalType": "struct LSP2FetcherWithMulticall3.Call[]",
          "components": [
            {
              "name": "target",
              "type": "address",
              "internalType": "address"
            },
            {
              "name": "callData",
              "type": "bytes",
              "internalType": "bytes"
            }
          ]
        }
      ],
      "outputs": [
        {
          "name": "returnData",
          "type": "bytes[]",
          "internalType": "bytes[]"
        }
      ],
      "stateMutability": "payable"
    },
    {
      "type": "function",
      "name": "aggregate3",
      "inputs": [
        {
          "name": "calls",
          "type": "tuple[]",
          "internalType": "struct LSP2FetcherWithMulticall3.Call3[]",
          "components": [
            {
              "name": "target",
              "type": "address",
              "internalType": "address"
            },
            {
              "name": "allowFailure",
              "type": "bool",
              "internalType": "bool"
            },
            {
              "name": "callData",
              "type": "bytes",
              "internalType": "bytes"
            }
          ]
        }
      ],
      "outputs": [
        {
          "name": "returnData",
          "type": "tuple[]",
          "internalType": "struct LSP2FetcherWithMulticall3.Result[]",
          "components": [
            {
              "name": "success",
              "type": "bool",
              "internalType": "bool"
            },
            {
              "name": "returnData",
              "type": "bytes",
              "internalType": "bytes"
            }
          ]
        }
      ],
      "stateMutability": "payable"
    },
    {
      "type": "function",
      "name": "aggregate4",
      "inputs": [
        {
          "name": "calls",
          "type": "tuple[]",
          "internalType": "struct LSP2FetcherWithMulticall3.Call3[]",
          "components": [
            {
              "name": "target",
              "type": "address",
              "internalType": "address"
            },
            {
              "name": "allowFailure",
              "type": "bool",
              "internalType": "bool"
            },
            {
              "name": "callData",
              "type": "bytes",
              "internalType": "bytes"
            }
          ]
        },
        {
          "name": "limit",
          "type": "uint256",
          "internalType": "uint256"
        }
      ],
      "outputs": [
        {
          "name": "returnData",
          "type": "tuple[]",
          "internalType": "struct LSP2FetcherWithMulticall3.Result4[]",
          "components": [
            {
              "name": "success",
              "type": "uint256",
              "internalType": "uint256"
            },
            {
              "name": "totalLength",
              "type": "uint256",
              "internalType": "uint256"
            },
            {
              "name": "returnData",
              "type": "bytes",
              "internalType": "bytes"
            }
          ]
        }
      ],
      "stateMutability": "payable"
    },
    {
      "type": "function",
      "name": "batchCalls",
      "inputs": [
        {
          "name": "data",
          "type": "bytes[]",
          "internalType": "bytes[]"
        }
      ],
      "outputs": [
        {
          "name": "results",
          "type": "bytes[]",
          "internalType": "bytes[]"
        }
      ],
      "stateMutability": "nonpayable"
    },
    {
      "type": "function",
      "name": "fetchArrayLengthCount",
      "inputs": [
        {
          "name": "_contract",
          "type": "address",
          "internalType": "address"
        },
        {
          "name": "dataKey",
          "type": "bytes32",
          "internalType": "bytes32"
        }
      ],
      "outputs": [
        {
          "name": "",
          "type": "uint128",
          "internalType": "uint128"
        }
      ],
      "stateMutability": "view"
    },
    {
      "type": "function",
      "name": "fetchArrayWithElements",
      "inputs": [
        {
          "name": "_contract",
          "type": "address",
          "internalType": "address"
        },
        {
          "name": "dataKey",
          "type": "bytes32",
          "internalType": "bytes32"
        }
      ],
      "outputs": [
        {
          "name": "",
          "type": "bytes[]",
          "internalType": "bytes[]"
        }
      ],
      "stateMutability": "view"
    },
    {
      "type": "function",
      "name": "fetchArrayWithMapKeys",
      "inputs": [
        {
          "name": "_contract",
          "type": "address",
          "internalType": "address"
        },
        {
          "name": "dataKey",
          "type": "bytes32",
          "internalType": "bytes32"
        },
        {
          "name": "mapKeyPrefix",
          "type": "bytes10",
          "internalType": "bytes10"
        }
      ],
      "outputs": [
        {
          "name": "",
          "type": "bytes[]",
          "internalType": "bytes[]"
        },
        {
          "name": "",
          "type": "bytes[]",
          "internalType": "bytes[]"
        }
      ],
      "stateMutability": "view"
    },
    {
      "type": "function",
      "name": "fetchElementMapKey",
      "inputs": [
        {
          "name": "_contract",
          "type": "address",
          "internalType": "address"
        },
        {
          "name": "dataKeyPrefix",
          "type": "bytes10",
          "internalType": "bytes10"
        },
        {
          "name": "element",
          "type": "bytes",
          "internalType": "bytes"
        }
      ],
      "outputs": [
        {
          "name": "",
          "type": "bytes",
          "internalType": "bytes"
        }
      ],
      "stateMutability": "view"
    },
    {
      "type": "function",
      "name": "fetchElementMapKeys",
      "inputs": [
        {
          "name": "_contract",
          "type": "address",
          "internalType": "address"
        },
        {
          "name": "dataKeyPrefix",
          "type": "bytes10",
          "internalType": "bytes10"
        },
        {
          "name": "elements",
          "type": "bytes[]",
          "internalType": "bytes[]"
        }
      ],
      "outputs": [
        {
          "name": "",
          "type": "bytes[]",
          "internalType": "bytes[]"
        }
      ],
      "stateMutability": "view"
    },
    {
      "type": "function",
      "name": "fetchElements",
      "inputs": [
        {
          "name": "_contract",
          "type": "address",
          "internalType": "address"
        },
        {
          "name": "dataKey",
          "type": "bytes32",
          "internalType": "bytes32"
        },
        {
          "name": "count",
          "type": "uint128",
          "internalType": "uint128"
        }
      ],
      "outputs": [
        {
          "name": "",
          "type": "bytes[]",
          "internalType": "bytes[]"
        }
      ],
      "stateMutability": "view"
    },
    {
      "type": "function",
      "name": "fetchLSP4ArrayWithMapKeys",
      "inputs": [
        {
          "name": "_contract",
          "type": "address",
          "internalType": "address"
        }
      ],
      "outputs": [
        {
          "name": "",
          "type": "bytes[]",
          "internalType": "bytes[]"
        },
        {
          "name": "",
          "type": "bytes[]",
          "internalType": "bytes[]"
        }
      ],
      "stateMutability": "view"
    },
    {
      "type": "function",
      "name": "fetchLSP5ArrayWithMapKeys",
      "inputs": [
        {
          "name": "_contract",
          "type": "address",
          "internalType": "address"
        }
      ],
      "outputs": [
        {
          "name": "",
          "type": "bytes[]",
          "internalType": "bytes[]"
        },
        {
          "name": "",
          "type": "bytes[]",
          "internalType": "bytes[]"
        }
      ],
      "stateMutability": "view"
    },
    {
      "type": "function",
      "name": "fetchLSP6ArrayWithMapKeys",
      "inputs": [
        {
          "name": "_contract",
          "type": "address",
          "internalType": "address"
        }
      ],
      "outputs": [
        {
          "name": "",
          "type": "bytes[]",
          "internalType": "bytes[]"
        },
        {
          "name": "",
          "type": "bytes[]",
          "internalType": "bytes[]"
        }
      ],
      "stateMutability": "view"
    },
    {
      "type": "function",
      "name": "getBlockHash",
      "inputs": [
        {
          "name": "blockNumber",
          "type": "uint256",
          "internalType": "uint256"
        }
      ],
      "outputs": [
        {
          "name": "blockHash",
          "type": "bytes32",
          "internalType": "bytes32"
        }
      ],
      "stateMutability": "view"
    },
    {
      "type": "function",
      "name": "getBlockNumber",
      "inputs": [],
      "outputs": [
        {
          "name": "blockNumber",
          "type": "uint256",
          "internalType": "uint256"
        }
      ],
      "stateMutability": "view"
    },
    {
      "type": "function",
      "name": "getChainId",
      "inputs": [],
      "outputs": [
        {
          "name": "chainid",
          "type": "uint256",
          "internalType": "uint256"
        }
      ],
      "stateMutability": "view"
    },
    {
      "type": "function",
      "name": "getCurrentBlockCoinbase",
      "inputs": [],
      "outputs": [
        {
          "name": "coinbase",
          "type": "address",
          "internalType": "address"
        }
      ],
      "stateMutability": "view"
    },
    {
      "type": "function",
      "name": "getCurrentBlockDifficulty",
      "inputs": [],
      "outputs": [
        {
          "name": "difficulty",
          "type": "uint256",
          "internalType": "uint256"
        }
      ],
      "stateMutability": "view"
    },
    {
      "type": "function",
      "name": "getCurrentBlockGasLimit",
      "inputs": [],
      "outputs": [
        {
          "name": "gaslimit",
          "type": "uint256",
          "internalType": "uint256"
        }
      ],
      "stateMutability": "view"
    },
    {
      "type": "function",
      "name": "getCurrentBlockTimestamp",
      "inputs": [],
      "outputs": [
        {
          "name": "timestamp",
          "type": "uint256",
          "internalType": "uint256"
        }
      ],
      "stateMutability": "view"
    },
    {
      "type": "function",
      "name": "getDataForTokenIdSlice",
      "inputs": [
        {
          "name": "_contract",
          "type": "address",
          "internalType": "address"
        },
        {
          "name": "tokenId",
          "type": "bytes32",
          "internalType": "bytes32"
        },
        {
          "name": "dataKey",
          "type": "bytes32",
          "internalType": "bytes32"
        },
        {
          "name": "offset",
          "type": "uint256",
          "internalType": "uint256"
        },
        {
          "name": "maxLength",
          "type": "uint256",
          "internalType": "uint256"
        }
      ],
      "outputs": [
        {
          "name": "",
          "type": "tuple",
          "internalType": "struct LSP2FetcherWithMulticall3.SliceResult",
          "components": [
            {
              "name": "totalLength",
              "type": "uint256",
              "internalType": "uint256"
            },
            {
              "name": "offet",
              "type": "uint256",
              "internalType": "uint256"
            },
            {
              "name": "returnData",
              "type": "bytes",
              "internalType": "bytes"
            }
          ]
        }
      ],
      "stateMutability": "view"
    },
    {
      "type": "function",
      "name": "getDataSlice",
      "inputs": [
        {
          "name": "_contract",
          "type": "address",
          "internalType": "address"
        },
        {
          "name": "dataKey",
          "type": "bytes32",
          "internalType": "bytes32"
        },
        {
          "name": "offset",
          "type": "uint256",
          "internalType": "uint256"
        },
        {
          "name": "maxLength",
          "type": "uint256",
          "internalType": "uint256"
        }
      ],
      "outputs": [
        {
          "name": "",
          "type": "tuple",
          "internalType": "struct LSP2FetcherWithMulticall3.SliceResult",
          "components": [
            {
              "name": "totalLength",
              "type": "uint256",
              "internalType": "uint256"
            },
            {
              "name": "offet",
              "type": "uint256",
              "internalType": "uint256"
            },
            {
              "name": "returnData",
              "type": "bytes",
              "internalType": "bytes"
            }
          ]
        }
      ],
      "stateMutability": "view"
    },
    {
      "type": "function",
      "name": "getEthBalance",
      "inputs": [
        {
          "name": "addr",
          "type": "address",
          "internalType": "address"
        }
      ],
      "outputs": [
        {
          "name": "balance",
          "type": "uint256",
          "internalType": "uint256"
        }
      ],
      "stateMutability": "view"
    },
    {
      "type": "function",
      "name": "getLastBlockHash",
      "inputs": [],
      "outputs": [
        {
          "name": "blockHash",
          "type": "bytes32",
          "internalType": "bytes32"
        }
      ],
      "stateMutability": "view"
    },
    {
      "type": "function",
      "name": "tryAggregate",
      "inputs": [
        {
          "name": "requireSuccess",
          "type": "bool",
          "internalType": "bool"
        },
        {
          "name": "calls",
          "type": "tuple[]",
          "internalType": "struct LSP2FetcherWithMulticall3.Call[]",
          "components": [
            {
              "name": "target",
              "type": "address",
              "internalType": "address"
            },
            {
              "name": "callData",
              "type": "bytes",
              "internalType": "bytes"
            }
          ]
        }
      ],
      "outputs": [
        {
          "name": "returnData",
          "type": "tuple[]",
          "internalType": "struct LSP2FetcherWithMulticall3.Result[]",
          "components": [
            {
              "name": "success",
              "type": "bool",
              "internalType": "bool"
            },
            {
              "name": "returnData",
              "type": "bytes",
              "internalType": "bytes"
            }
          ]
        }
      ],
      "stateMutability": "payable"
    }
  ],
  "bytecode": {
    "object": "0x608060405234801561001057600080fd5b5061217c806100206000396000f3fe6080604052600436106101665760003560e01c806372425d9d116100d1578063a6d283511161008a578063bce38bd711610064578063bce38bd714610400578063cc41724c14610413578063e5343bab14610433578063ee82ac5e1461046b57600080fd5b8063a6d28351146103a5578063a8b0574e146103c5578063bbe045bb146103e057600080fd5b806372425d9d146102ff578063829bcd6f1461031257806382ad56cb1461033257806386d516e814610352578063900362d61461036557806392f731fe1461038557600080fd5b80632eca2b8e116101235780632eca2b8e146102435780633408e4701461027157806342cbb15c146102845780634d2301cc1461029757806354bf8314146102bf5780636963d438146102df57600080fd5b8063088b71e31461016b5780630f28c97d146101a1578063191ad4dc146101be5780631bd6da3e146101eb578063252dba421461021857806327e86d6e1461022b575b600080fd5b34801561017757600080fd5b5061018b610186366004611751565b61048a565b60405161019891906118ce565b60405180910390f35b3480156101ad57600080fd5b50425b604051908152602001610198565b3480156101ca57600080fd5b506101de6101d93660046118e8565b6105e3565b604051610198919061194a565b3480156101f757600080fd5b5061020b61020636600461195d565b61079f565b60405161019891906119ba565b61018b610226366004611aa0565b610829565b34801561023757600080fd5b504360001901406101b0565b34801561024f57600080fd5b5061026361025e366004611ad4565b61098b565b604051610198929190611aef565b34801561027d57600080fd5b50466101b0565b34801561029057600080fd5b50436101b0565b3480156102a357600080fd5b506101b06102b2366004611ad4565b6001600160a01b03163190565b6102d26102cd366004611bfd565b6109e2565b6040516101989190611c41565b3480156102eb57600080fd5b5061018b6102fa366004611ca5565b610ccb565b34801561030b57600080fd5b50446101b0565b34801561031e57600080fd5b5061018b61032d366004611d19565b610e2d565b610345610340366004611d65565b610f57565b6040516101989190611d99565b34801561035e57600080fd5b50456101b0565b34801561037157600080fd5b50610263610380366004611ad4565b6110d2565b34801561039157600080fd5b5061018b6103a0366004611e11565b61111d565b3480156103b157600080fd5b506101de6103c0366004611e3b565b611142565b3480156103d157600080fd5b50604051418152602001610198565b3480156103ec57600080fd5b506102636103fb366004611e7d565b611305565b61034561040e366004611eb9565b611331565b34801561041f57600080fd5b5061026361042e366004611ad4565b6114a2565b34801561043f57600080fd5b5061045361044e366004611e11565b6114ed565b6040516001600160801b039091168152602001610198565b34801561047757600080fd5b506101b0610486366004611f06565b4090565b6060600082516001600160401b038111156104a7576104a7611621565b6040519080825280602002602001820160405280156104da57816020015b60608152602001906001900390816104c55790505b50905060005b8351816001600160801b031610156105da5760006105298686846001600160801b03168151811061051357610513611f1f565b602002602001015161052490611f35565b611570565b6040516354f6127f60e01b8152600481018290529091506000906001600160a01b038916906354f6127f90602401600060405180830381865afa158015610574573d6000803e3d6000fd5b505050506040513d6000823e601f3d908101601f1916820160405261059c9190810190611f6d565b90508084846001600160801b0316815181106105ba576105ba611f1f565b6020026020010181905250505080806105d290611ff0565b9150506104e0565b50949350505050565b61060760405180606001604052806000815260200160008152602001606081525090565b6040516354f6127f60e01b8152600481018590526000906001600160a01b038716906354f6127f90602401600060405180830381865afa15801561064f573d6000803e3d6000fd5b505050506040513d6000823e601f3d908101601f191682016040526106779190810190611f6d565b80519091508085106106b857604051806060016040528060008152602001600081526020016040518060200160405280600081525081525092505050610797565b60006106c48683612016565b9050848111156106d15750835b6000816001600160401b038111156106eb576106eb611621565b6040519080825280601f01601f191660200182016040528015610715576020820181803683370190505b50905060005b8281101561077a578461072e828a612029565b8151811061073e5761073e611f1f565b602001015160f81c60f81b82828151811061075b5761075b611f1f565b60200101906001600160f81b031916908160001a90535060010161071b565b506040805160608101825293845260208401889052830152509150505b949350505050565b606060006107b08461052485611f35565b6040516354f6127f60e01b8152600481018290529091506001600160a01b038616906354f6127f90602401600060405180830381865afa1580156107f8573d6000803e3d6000fd5b505050506040513d6000823e601f3d908101601f191682016040526108209190810190611f6d565b95945050505050565b8051606090806001600160401b0381111561084657610846611621565b60405190808252806020026020018201604052801561087957816020015b60608152602001906001900390816108645790505b5060408051808201909152600081526060602082015290925060005b828110156109835760008582815181106108b1576108b1611f1f565b602090810291909101015180519093506001600160a01b03166108d2573083525b82600001516001600160a01b031683602001516040516108f2919061203c565b6000604051808303816000865af19150503d806000811461092f576040519150601f19603f3d011682016040523d82523d6000602084013e610934565b606091505b5086848151811061094757610947611f1f565b602090810291909101015290508061097a5760405162461bcd60e51b815260040161097190612058565b60405180910390fd5b50600101610895565b505050919050565b60608060006109ba847f6460ee3c0aac563ccbf76d6e1d07bada78e3a9514e6382b736ed3f478ab7b90b61111d565b905060006109d68569812c4334633eb816c80d60b01b8461048a565b91959194509092505050565b8151606090806001600160401b038111156109ff576109ff611621565b604051908082528060200260200182016040528015610a5457816020015b610a4160405180606001604052806000815260200160008152602001606081525090565b815260200190600190039081610a1d5790505b506040805160608082018352600080835260208301819052928201529193505b82811015610cc2576000848281518110610a9057610a90611f1f565b60200260200101519050868281518110610aac57610aac611f1f565b602090810291909101015180519093506001600160a01b0316610acd573083525b6060600084600001516001600160a01b03168560400151604051610af1919061203c565b6000604051808303816000865af19150503d8060008114610b2e576040519150601f19603f3d011682016040523d82523d6000602084013e610b33565b606091505b506020870151909350909150610b905780610b905760405162461bcd60e51b815260206004820152601760248201527f616767726567617465343a2063616c6c206661696c65640000000000000000006044820152606401610971565b8015610cb45781516020840181905260018452881015610ca6576000886001600160401b03811115610bc457610bc4611621565b6040519080825280601f01601f191660200182016040528015610bee576020820181803683370190505b50905060005b89811015610c4a57838181518110610c0e57610c0e611f1f565b602001015160f81c60f81b828281518110610c2b57610c2b611f1f565b60200101906001600160f81b031916908160001a905350600101610bf4565b5060408401819052600284528051909803976000610c69866001612029565b90505b87811015610c9c576003898281518110610c8857610c88611f1f565b602090810291909101015152600101610c6c565b5050505050610cc2565b604083018290528151909703965b836001019350505050610a74565b50505092915050565b6060816001600160401b03811115610ce557610ce5611621565b604051908082528060200260200182016040528015610d1857816020015b6060815260200190600190039081610d035790505b50905060005b82811015610e265760008030868685818110610d3c57610d3c611f1f565b9050602002810190610d4e919061208f565b604051610d5c9291906120dc565b600060405180830381855af49150503d8060008114610d97576040519150601f19603f3d011682016040523d82523d6000602084013e610d9c565b606091505b509150915081610dfe57805115610db65780518082602001fd5b60405162461bcd60e51b815260206004820181905260248201527f4c535032466574636865723a20626174636843616c6c732072657665727465646044820152606401610971565b80848481518110610e1157610e11611f1f565b60209081029190910101525050600101610d1e565b5092915050565b60606000826001600160801b03166001600160401b03811115610e5257610e52611621565b604051908082528060200260200182016040528015610e8557816020015b6060815260200190600190039081610e705790505b50905060005b836001600160801b0316816001600160801b031610156105da576000610eb186836115c2565b6040516354f6127f60e01b8152600481018290529091506000906001600160a01b038916906354f6127f90602401600060405180830381865afa158015610efc573d6000803e3d6000fd5b505050506040513d6000823e601f3d908101601f19168201604052610f249190810190611f6d565b90508084846001600160801b031681518110610f4257610f42611f1f565b60209081029190910101525050600101610e8b565b8051606090806001600160401b03811115610f7457610f74611621565b604051908082528060200260200182016040528015610fba57816020015b604080518082019091526000815260606020820152815260200190600190039081610f925790505b506040805160608082018352600080835260208301819052928201529193505b82811015610983576000848281518110610ff657610ff6611f1f565b6020026020010151905085828151811061101257611012611f1f565b602090810291909101015180519093506001600160a01b0316611033573083525b82600001516001600160a01b03168360400151604051611053919061203c565b6000604051808303816000865af19150503d8060008114611090576040519150601f19603f3d011682016040523d82523d6000602084013e611095565b606091505b5060208084019190915290151582528301516110c95780516110c95760405162461bcd60e51b815260040161097190612058565b50600101610fda565b6060806000611101847fdf30dba06db6a30e65354d9a64c609861f089545ca58c6b4dbe31a5f338cb0e361111d565b905060006109d685694b80742de2bf82acb36360b01b8461048a565b6060600061112b84846114ed565b9050611138848483610e2d565b9150505b92915050565b61116660405180606001604052806000815260200160008152602001606081525090565b6040516316e023b360e01b815260048101869052602481018590526000906001600160a01b038816906316e023b390604401600060405180830381865afa1580156111b5573d6000803e3d6000fd5b505050506040513d6000823e601f3d908101601f191682016040526111dd9190810190611f6d565b805190915080851061121e57604051806060016040528060008152602001600081526020016040518060200160405280600081525081525092505050610820565b600061122a8683612016565b9050848111156112375750835b6000816001600160401b0381111561125157611251611621565b6040519080825280601f01601f19166020018201604052801561127b576020820181803683370190505b50905060005b828110156112e05784611294828a612029565b815181106112a4576112a4611f1f565b602001015160f81c60f81b8282815181106112c1576112c1611f1f565b60200101906001600160f81b031916908160001a905350600101611281565b5060408051606081018252938452602084018890528301525091505095945050505050565b6060806000611314868661111d565b9050600061132387868461048a565b919791965090945050505050565b8051606090806001600160401b0381111561134e5761134e611621565b60405190808252806020026020018201604052801561139457816020015b60408051808201909152600081526060602082015281526020019060019003908161136c5790505b5060408051808201909152600081526060602082015290925060005b82811015610cc25760008482815181106113cc576113cc611f1f565b602002602001015190508582815181106113e8576113e8611f1f565b602090810291909101015180519093506001600160a01b0316611409573083525b82600001516001600160a01b03168360200151604051611429919061203c565b6000604051808303816000865af19150503d8060008114611466576040519150601f19603f3d011682016040523d82523d6000602084013e61146b565b606091505b5060208301521515815286156114995780516114995760405162461bcd60e51b815260040161097190612058565b506001016113b0565b60608060006114d1847f114bd03b3a46d48759680d81ebb2b414fda7d030a7105a851867accf1c2352e761111d565b905060006109d68569036f42f57aecc15a72ed60b51b8461048a565b6040516354f6127f60e01b8152600481018290526000906001600160a01b038416906354f6127f90602401600060405180830381865afa158015611535573d6000803e3d6000fd5b505050506040513d6000823e601f3d908101601f1916820160405261155d9190810190611f6d565b611566906120ec565b60801c9392505050565b604080516001600160b01b0319841660208201526000602a82018190526bffffffffffffffffffffffff198416602c830152918291015b6040516020818303038152906040529050806111389061211f565b604080516001600160801b03198085166020830152608084901b1660308201526000918291016115a7565b80356001600160a01b038116811461160457600080fd5b919050565b80356001600160b01b03198116811461160457600080fd5b634e487b7160e01b600052604160045260246000fd5b604080519081016001600160401b038111828210171561165957611659611621565b60405290565b604051606081016001600160401b038111828210171561165957611659611621565b604051601f8201601f191681016001600160401b03811182821017156116a9576116a9611621565b604052919050565b60006001600160401b038211156116ca576116ca611621565b5060051b60200190565b60006001600160401b038211156116ed576116ed611621565b50601f01601f191660200190565b600082601f83011261170c57600080fd5b813561171f61171a826116d4565b611681565b81815284602083860101111561173457600080fd5b816020850160208301376000918101602001919091529392505050565b60008060006060848603121561176657600080fd5b61176f846115ed565b9250602061177e818601611609565b925060408501356001600160401b038082111561179a57600080fd5b818701915087601f8301126117ae57600080fd5b81356117bc61171a826116b1565b81815260059190911b8301840190848101908a8311156117db57600080fd5b8585015b83811015611813578035858111156117f75760008081fd5b6118058d89838a01016116fb565b8452509186019186016117df565b508096505050505050509250925092565b60005b8381101561183f578181015183820152602001611827565b50506000910152565b60008151808452611860816020860160208601611824565b601f01601f19169290920160200192915050565b60008282518085526020808601955060208260051b8401016020860160005b848110156118c157601f198684030189526118af838351611848565b98840198925090830190600101611893565b5090979650505050505050565b6020815260006118e16020830184611874565b9392505050565b600080600080608085870312156118fe57600080fd5b611907856115ed565b966020860135965060408601359560600135945092505050565b805182526020810151602083015260006040820151606060408501526111386060850182611848565b6020815260006118e16020830184611921565b60008060006060848603121561197257600080fd5b61197b846115ed565b925061198960208501611609565b915060408401356001600160401b038111156119a457600080fd5b6119b0868287016116fb565b9150509250925092565b6020815260006118e16020830184611848565b600082601f8301126119de57600080fd5b813560206119ee61171a836116b1565b82815260059290921b84018101918181019086841115611a0d57600080fd5b8286015b84811015611a955780356001600160401b0380821115611a315760008081fd5b908801906040828b03601f1901811315611a4b5760008081fd5b611a53611637565b611a5e8885016115ed565b8152908301359082821115611a735760008081fd5b611a818c89848701016116fb565b818901528652505050918301918301611a11565b509695505050505050565b600060208284031215611ab257600080fd5b81356001600160401b03811115611ac857600080fd5b611138848285016119cd565b600060208284031215611ae657600080fd5b6118e1826115ed565b604081526000611b026040830185611874565b82810360208401526108208185611874565b8035801515811461160457600080fd5b600082601f830112611b3557600080fd5b81356020611b4561171a836116b1565b82815260059290921b84018101918181019086841115611b6457600080fd5b8286015b84811015611a955780356001600160401b0380821115611b885760008081fd5b908801906060828b03601f1901811315611ba25760008081fd5b611baa61165f565b611bb58885016115ed565b81526040611bc4818601611b14565b828a0152918401359183831115611bdb5760008081fd5b611be98d8a858801016116fb565b908201528652505050918301918301611b68565b60008060408385031215611c1057600080fd5b82356001600160401b03811115611c2657600080fd5b611c3285828601611b24565b95602094909401359450505050565b600060208083016020845280855180835260408601915060408160051b87010192506020870160005b82811015611c9857603f19888603018452611c86858351611921565b94509285019290850190600101611c6a565b5092979650505050505050565b60008060208385031215611cb857600080fd5b82356001600160401b0380821115611ccf57600080fd5b818501915085601f830112611ce357600080fd5b813581811115611cf257600080fd5b8660208260051b8501011115611d0757600080fd5b60209290920196919550909350505050565b600080600060608486031215611d2e57600080fd5b611d37846115ed565b92506020840135915060408401356001600160801b0381168114611d5a57600080fd5b809150509250925092565b600060208284031215611d7757600080fd5b81356001600160401b03811115611d8d57600080fd5b61113884828501611b24565b600060208083018184528085518083526040925060408601915060408160051b87010184880160005b83811015611e0357888303603f190185528151805115158452870151878401879052611df087850182611848565b9588019593505090860190600101611dc2565b509098975050505050505050565b60008060408385031215611e2457600080fd5b611e2d836115ed565b946020939093013593505050565b600080600080600060a08688031215611e5357600080fd5b611e5c866115ed565b97602087013597506040870135966060810135965060800135945092505050565b600080600060608486031215611e9257600080fd5b611e9b846115ed565b925060208401359150611eb060408501611609565b90509250925092565b60008060408385031215611ecc57600080fd5b611ed583611b14565b915060208301356001600160401b03811115611ef057600080fd5b611efc858286016119cd565b9150509250929050565b600060208284031215611f1857600080fd5b5035919050565b634e487b7160e01b600052603260045260246000fd5b805160208201516bffffffffffffffffffffffff1980821692919060148310156109835760149290920360031b82901b161692915050565b600060208284031215611f7f57600080fd5b81516001600160401b03811115611f9557600080fd5b8201601f81018413611fa657600080fd5b8051611fb461171a826116d4565b818152856020838501011115611fc957600080fd5b610820826020830160208601611824565b634e487b7160e01b600052601160045260246000fd5b60006001600160801b0380831681810361200c5761200c611fda565b6001019392505050565b8181038181111561113c5761113c611fda565b8082018082111561113c5761113c611fda565b6000825161204e818460208701611824565b9190910192915050565b60208082526017908201527f4d756c746963616c6c333a2063616c6c206661696c6564000000000000000000604082015260600190565b6000808335601e198436030181126120a657600080fd5b8301803591506001600160401b038211156120c057600080fd5b6020019150368190038213156120d557600080fd5b9250929050565b8183823760009101908152919050565b805160208201516001600160801b031980821692919060108310156109835760109290920360031b82901b161692915050565b80516020808301519190811015612140576000198160200360031b1b821691505b5091905056fea264697066735822122058a464ef6e066502c3f7720523f391a0fa8caf8d521025f5872108ab5b93f3a764736f6c63430008180033",
    "linkReferences": {}
  },
  "methodIdentifiers": {
    "aggregate((address,bytes)[])": "252dba42",
    "aggregate3((address,bool,bytes)[])": "82ad56cb",
    "aggregate4((address,bool,bytes)[],uint256)": "54bf8314",
    "batchCalls(bytes[])": "6963d438",
    "fetchArrayLengthCount(address,bytes32)": "e5343bab",
    "fetchArrayWithElements(address,bytes32)": "92f731fe",
    "fetchArrayWithMapKeys(address,bytes32,bytes10)": "bbe045bb",
    "fetchElementMapKey(address,bytes10,bytes)": "1bd6da3e",
    "fetchElementMapKeys(address,bytes10,bytes[])": "088b71e3",
    "fetchElements(address,bytes32,uint128)": "829bcd6f",
    "fetchLSP4ArrayWithMapKeys(address)": "cc41724c",
    "fetchLSP5ArrayWithMapKeys(address)": "2eca2b8e",
    "fetchLSP6ArrayWithMapKeys(address)": "900362d6",
    "getBlockHash(uint256)": "ee82ac5e",
    "getBlockNumber()": "42cbb15c",
    "getChainId()": "3408e470",
    "getCurrentBlockCoinbase()": "a8b0574e",
    "getCurrentBlockDifficulty()": "72425d9d",
    "getCurrentBlockGasLimit()": "86d516e8",
    "getCurrentBlockTimestamp()": "0f28c97d",
    "getDataForTokenIdSlice(address,bytes32,bytes32,uint256,uint256)": "a6d28351",
    "getDataSlice(address,bytes32,uint256,uint256)": "191ad4dc",
    "getEthBalance(address)": "4d2301cc",
    "getLastBlockHash()": "27e86d6e",
    "tryAggregate(bool,(address,bytes)[])": "bce38bd7"
  },
  "id": 43
}